:0400000089EF00F094
:100008004D82FACF01F0FBCF02F0E9CF03F0EACF3F
:1000180004F0E1CF05F0E2CF06F0D9CF07F0DACF50
:1000280008F0F3CF09F0F4CF0AF0F6CF0BF0F7CFD2
:100038000CF0F8CF0DF0F5CF0EF04DC00FF04EC01C
:1000480010F04FC011F050C012F0F2BAF2A403D071
:1000580074EC14F034D0F2AC32D0A3B8A4A808D011
:1000680001D82DD00500FA6E3E50FD6E3F5022D0CB
:10007800A3BAA4AA08D001D822D00500FA6E3C5031
:10008800FD6E3D5017D09DB89EA809D001D817D055
:1000980005000001FA6E9851FD6E99510BD09DBA7A
:1000A8009EAA0DD001D80BD005000001FA6E96511A
:1000B800FD6E9751FE6EF850FF6EFA50120012C096
:1000C80050F011C04FF010C04EF00FC04DF00EC0F0
:1000D800F5FF0DC0F8FF0CC0F7FF0BC0F6FF0AC014
:1000E800F4FF09C0F3FF08C0DAFF07C0D9FF06C054
:1000F800E2FF05C0E1FF04C0EAFF03C0E9FF02C058
:10010800FBFF01C0FAFF4D9211008EEF10F0BA0EFE
:100118000001C66F000EC76F89D3250ED919D8B450
:1001280009D0B6C0D9FFB7C0DAFFD9C0DFFFB64BD8
:10013800B72B7CD3000EC96F000EC86F05D0C985D8
:1001480017D0C00EC81314D0B8C0F6FFB9C0F7FF57
:10015800B84BB92B0800F5CFD9F0D951000AD8B45B
:1001680071D3660AD8B4EBD7130AD8B4EAD75ED3EA
:10017800070EC915D8B4C6D2000ECB6F060ECA6FCB
:10018800C6C0D9FFC7C0DAFFDECFD6F0DECFD7F0C2
:10019800DDCFD8F0030EC627000EC723D8AF11D085
:1001A800D6C013F0D7C014F0D8C015F005EC14F081
:1001B80013C0D6F014C0D7F015C0D8F0030E000154
:1001C800C813000ED16F000ED06FD651D711D811B9
:1001D800D8B486D0820EBD6FFF0EBE6FD6C0BFF0FA
:1001E800D7C0C0F0D8C0C1F0D9C0C2F0100E05D039
:1001F800D890C233C133C033BF33E82EF9D7BF51CB
:10020800BD25D06F000EBE21D16FD007D8A0D10771
:10021800D0C021F0D1C022F0000E246E030E236E50
:10022800CDEC13F021C0D0F022C0D1F0D0C019F02D
:10023800D1C01AF0000E1C6E0A0E1B6ECDEC0FF02A
:1002480019C0D0F01AC0D1F00001D1AF03D0D00747
:10025800D8A0D107D05100082DEC04F036C0D2F058
:1002680037C0D3F038C0D4F0D2C027F0D3C028F0BC
:10027800D4C029F0D6C02AF0D7C02BF0D8C02CF0B3
:10028800A8EC0DF027C0D2F028C0D3F029C0D4F0D4
:10029800D2C013F0D3C014F0D4C015F0000E166EFF
:1002A800800E176E3F0E186E85EC0FF0D8B005D093
:1002B8000001D007D8A0D10713D0D2C013F0D3C003
:1002C80014F0D4C015F0000E166E200E176E410EF5
:1002D800186E85EC0FF0D8A003D00001D04BD12BBD
:1002E8000001CBBF06D0CB511BE10D0ECA5DD8B0C3
:1002F80017D0D6C0A4F0D7C0A5F0D8C0A6F0CA5170
:1003080072EC07F036C0A7F037C0A8F038C0A9F0E3
:1003180092EC0AF0A4C0D6F0A5C0D7F0A6C0D8F0D9
:100328000001D1BF06D0D1511FE10A0ED05DD8B06F
:100338001BD0D651D711D811D8B455D0D6C0A1F0FA
:10034800D7C0A2F0D8C0A3F02CEC0DF00001A15149
:10035800A211A311A411D8B4D1BF45D0D15104E141
:10036800020ED05DD8A03FD0D2C013F0D3C014F095
:10037800D4C015F0700E166E890E176E400E186EEA
:1003880085EC0FF0D8B003D00001F70E02D00001C1
:10039800F80ED027FF0ED123D0512DEC04F036C033
:1003A800D2F037C0D3F038C0D4F0D6C013F0D7C0DD
:1003B80014F0D8C015F0D2C016F0D3C017F0D4C0CE
:1003C80018F069EC0BF013C0CCF014C0CDF015C0D8
:1003D800CEF016C0CFF0000E0001D66F000ED76F1A
:1003E800000ED86F33D0D6C0A1F0D7C0A2F0D8C0C5
:1003F800A3F02CEC0DF0A1C0CCF0A2C0CDF0A3C0AE
:10040800CEF0A4C0CFF0D6C0B0F0D7C0B1F0D8C0FD
:10041800B2F0CCC01BF0CDC01CF0CEC01DF0CFC0D8
:100428001EF032EC11F01BC0B3F01CC0B4F01DC0BC
:10043800B5F03AEC12F0B0C0D6F0B1C0D7F0B2C007
:10044800D8F0000E0001D16F000ED06F010ED96FE9
:100458000A0ED919D8B418D0D951040D910EF32425
:10046800F66E7E0EF420F76E0900F550CC5D09009B
:10047800F550CD590900F550CE590900F550CF591E
:10048800D8A002D0D92BE4D7030EC815BD6F000E33
:10049800C915BE6FBD51BE11D8B450D0B6C0D9FF72
:1004A800B7C0DAFF2D0E47D0CCC013F0CDC014F082
:1004B800CEC015F0CFC016F0D951040D910EF3241B
:1004C800F66E7E0EF420F76E0900F5CF17F00900DE
:1004D800F5CF18F00900F5CF19F00A00F5CF1AF09A
:1004E8000FEC10F013C0D2F014C0D3F015C0D4F044
:1004F80016C0D5F0D2C020F0D3C021F0D4C022F06D
:10050800D5C023F00A0E246E000E256E000E266E4E
:10051800000E276EFFEC10F020C0D2F021C0D3F0FF
:1005280022C0D4F023C0D5F00001D251300FB6C09C
:10053800D9FFB7C0DAFFDF6EB64BB72BD907D92979
:10054800D8B40CD0B1D7B6C0D9FFB7C0DAFF300ED7
:10055800DF6EB64BB72BD007D8A0D107D1BF05D0D7
:10056800D151F1E1D005D8B0EED7CBBF09D0CB51EE
:1005780004E1090ECA5DD8A003D0080ED96F02D0D5
:10058800CAC0D9F0D951CA5F000ED9BFFF0ECB5BE4
:10059800D951D8B408D0B6C0D9FFB7C0DAFF2E0EEB
:1005A800DF6EB64BB72BD9512DEC04F036C0C3F033
:1005B80037C0C4F038C0C5F0D6C02AF0D7C02BF079
:1005C800D8C02CF0C3C027F0C4C028F0C5C029F09B
:1005D800A8EC0DF027C0A1F028C0A2F029C0A3F014
:1005E8002CEC0DF0A1C0CCF0A2C0CDF0A3C0CEF091
:1005F800A4C0CFF071D0CCC013F0CDC014F0CEC0E1
:1006080015F0CFC016F00001D951040D910EF32456
:10061800F66E7E0EF420F76E0900F5CF17F009008C
:10062800F5CF18F00900F5CF19F00A00F5CF1AF048
:100638000FEC10F013C0D2F014C0D3F015C0D4F0F2
:1006480016C0D5F0D2C020F0D3C021F0D4C022F01B
:10065800D5C023F00A0E246E000E256E000E266EFD
:10066800000E276EFFEC10F020C0D2F021C0D3F0AE
:1006780022C0D4F023C0D5F00001D251300FB6C04B
:10068800D9FFB7C0DAFFDF6EB64BB72BCCC020F06E
:10069800CDC021F0CEC022F0CFC023F0D951040D37
:1006A800910EF324F66E7E0EF420F76E0900F5CF56
:1006B80024F00900F5CF25F00900F5CF26F00A004F
:1006C800F5CF27F0FFEC10F020C0CCF021C0CDF022
:1006D80022C0CEF023C0CFF00001D907D929D8B461
:1006E8000CD089D7B6C0D9FFB7C0DAFF300EDF6E9D
:1006F800B64BB72BCA07D8A0CB07CA51CB11D8B471
:1007080095D0F0D7C6C0D9FFC7C0DAFFDECFBDF09D
:10071800DDCFBEF0BDC0CCF0BEC0CDF0CE6BCF6B90
:10072800020EC627000EC723010ED96F0A0ED9196B
:10073800D8B418D0D951040D910EF324F66E7E0E5C
:10074800F420F76E0900F550CC5D0900F550CD593D
:100758000900F550CE590900F550CF59D8A002D05C
:10076800D92BE4D7030EC815BD6F000EC915BE6F8F
:10077800BD51BE11D8B408D0B6C0D9FFB7C0DAFF92
:100788002D0EDF6EB64BB72BD951CA6FCB6BCABFD4
:10079800CB0744D0CAC0BDF0CBC0BEF0D890BD379F
:1007A800BE37D890BD37BE37910EBD25F66E7E0E8A
:1007B800BE21F76E0900F5CF17F00900F5CF18F044
:1007C8000900F5CF19F00A00F5CF1AF0CCC013F0E4
:1007D800CDC014F0CEC015F0CFC016F00FEC10F05D
:1007E80013C020F014C021F015C022F016C023F069
:1007F8000A0E246E000E256E000E266E000E276E61
:10080800FFEC10F02050300F0001D96FB6C0D9FFAF
:10081800B7C0DAFFD9C0DFFFB64BB72BCA07D8A0DD
:10082800CB07CA29B7E1CB29D8A4B4D7B8C0F6FFFB
:10083800B9C0F7FFB84BB92B0800F5CFD9F0D9519B
:10084800D8A46BD4B6C0D9FFB7C0DAFF000EDF6EEC
:1008580012000001A06F0001A0AF06D1A06DA05149
:10086800800A120FD8A093D0000E246E030E236EB8
:10087800000E1C6E0A0E1B6E000E166E640E156EB0
:10088800A051136E146A13BE1406C7EC10F013C0FF
:1008980019F014C01AF0CDEC0FF0090E1924216ECE
:1008A800000E1A20226ECDEC13F0E00E2124F66E15
:1008B8007E0E2220F76E0900F5CF2AF00900F5CF49
:1008C8002BF00A00F5CF2CF0000E1C6E640E1B6E88
:1008D8000001A051196E1A6A19BE1A06CDEC0FF064
:1008E800120E1924216E000E1A20226E000E246E9C
:1008F800030E236ECDEC13F0E00E2124F66E7E0E6F
:100908002220F76E0900F5CF27F00900F5CF28F06F
:100918000A00F5CF29F0A8EC0DF027C09DF028C0FB
:100928009EF029C09FF09DC027F09EC028F09FC070
:1009380029F0000E246E030E236E000E166E0A0EAA
:10094800156E0001A051136E146A13BE1406C7EC8D
:1009580010F013C021F014C022F0CDEC13F0E00E1B
:100968002124F66E7E0E2220F76E0900F5CF2AF0BC
:100978000900F5CF2BF00A00F5CF2CF0A8EC0DF00C
:1009880027C036F028C037F029C038F0120000011F
:10099800A051800A750FD8A054D0000E1C6E0A0E04
:1009A8001B6EA051196E1A6A19BE1A06CDEC0FF00B
:1009B800090E1924216E000E1A20226E000E246ED4
:1009C800030E236ECDEC13F0E00E2124F66E7E0E9E
:1009D8002220F76E0900F5CF27F00900F5CF28F09F
:1009E8000A00F5CF29F0000E246E030E236E000EC8
:1009F800166E0A0E156E0001A051136E146A13BE0E
:100A08001406C7EC10F013C021F014C022F0CDEC8E
:100A180013F0E00E2124F66E7E0E2220F76E0900F8
:100A2800F5CF2AF00900F5CF2BF00A00F5CF2CF00E
:100A3800A8EC0DF027C036F028C037F029C038F0F0
:100A480012000001A051030DE00EF324F66E7E0E95
:100A5800F420F76E0900F5CF36F00900F5CF37F02E
:100A68000A00F5CF38F01200A051800A120FD8A062
:100A780093D0000E246E030E236E000E1C6E0A0E19
:100A88001B6E000E166E640E156EA051136E146A5E
:100A980013BE1406C7EC10F013C019F014C01AF0F6
:100AA800CDEC0FF0090E1924216E000E1A20226ECB
:100AB800CDEC13F0B90E2124F66E7E0E2220F76ECF
:100AC8000900F5CF2AF00900F5CF2BF00A00F5CF81
:100AD8002CF0000E1C6E640E1B6E0001A051196EE6
:100AE8001A6A19BE1A06CDEC0FF0120E1924216EDF
:100AF800000E1A20226E000E246E030E236ECDEC1B
:100B080013F0B90E2124F66E7E0E2220F76E09002E
:100B1800F5CF27F00900F5CF28F00A00F5CF29F026
:100B2800A8EC0DF027C09DF028C09EF029C09FF0CA
:100B38009DC027F09EC028F09FC029F0000E246EAB
:100B4800030E236E000E166E0A0E156E0001A051DC
:100B5800136E146A13BE1406C7EC10F013C021F00C
:100B680014C022F0CDEC13F0B90E2124F66E7E0EDF
:100B78002220F76E0900F5CF2AF00900F5CF2BF0F7
:100B88000A00F5CF2CF0A8EC0DF027C036F028C0ED
:100B980037F029C038F012000001A051800A750F03
:100BA800D8A054D0000E1C6E0A0E1B6EA051196EF0
:100BB8001A6A19BE1A06CDEC0FF0090E1924216E17
:100BC800000E1A20226E000E246E030E236ECDEC4A
:100BD80013F0B90E2124F66E7E0E2220F76E09005E
:100BE800F5CF27F00900F5CF28F00A00F5CF29F056
:100BF800000E246E030E236E000E166E0A0E156E7E
:100C08000001A051136E146A13BE1406C7EC10F04D
:100C180013C021F014C022F0CDEC13F0B90E21243A
:100C2800F66E7E0E2220F76E0900F5CF2AF0090035
:100C3800F5CF2BF00A00F5CF2CF0A8EC0DF027C06B
:100C480036F028C037F029C038F012000001A05152
:100C5800030DB90EF324F66E7E0EF420F76E09002C
:100C6800F5CF36F00900F5CF37F00A00F5CF38F0A8
:100C78001200000E01010B6F010E0A6F000E036FC8
:100C8800000E026F000E056F000E046F000E076F56
:100C9800000E066F000E096F000E086F18D1899AB2
:100CA800C7C102F1C8C103F1000E0B6F020EF1D0EB
:100CB80002C100F103C101F1001F011F004B012B0C
:100CC800C7510027C8510123015104E10E0E005DF0
:100CD800D8A0FDD0090E39EC14F09AEC14F0000EEF
:100CE80001010B6F030ED5D07BEC14F00009D8B4CA
:100CF800EED050EC14F013C094F014C095F0000E30
:100D080001010B6F040E0A6FC7C104F1C8C105F1D8
:100D1800DED004C100F105C101F1001F011F004B25
:100D2800012BC7510027C8510123015104E1020ECC
:100D3800005DD8A0CCD0898A000E0B6F050E0A6F13
:100D4800C7C106F1C8C107F1C2D006C100F107C189
:100D580001F1001F011F004B012BC7510027C8518B
:100D68000123E40E005D010E0159D8A0B0D0000E99
:100D78002A6EA00E2B6E400E2C6E94C01BF095C0F0
:100D88001CF0F3EC13F01BC027F01CC028F01DC0AA
:100D980029F0A8EC0DF027C09DF028C09EF029C0CE
:100DA8009FF0000E0001A06F800EA16F440EA26F8D
:100DB80022EC0EF09DC09AF09EC09BF09FC09CF064
:100DC800000E2A6E700E2B6E410E2C6E9AC027F004
:100DD8009BC028F09CC029F0A8EC0DF027C0A4F017
:100DE80028C0A5F029C0A6F0980E0001A76FCC0E68
:100DF800A86FBD0EA96F92EC0AF0A4C091F0A5C02F
:100E080092F0A6C093F0E20E0001B66F010EB76F24
:100E1800130EB86F7F0EB96F91C0BAF092C0BBF0D5
:100E280093C0BCF08BEC00F0E20E196E010E1A6E46
:100E3800E20E136E010E146E9AEC12F013501B6E34
:100E48007CEC12F0000E01010B6F060E0A6FC7C191
:100E580008F1C8C109F13BD008C100F109C101F18D
:100E6800001F011F004B012BC7510027C851012348
:100E7800500E005DC30E0159D8A029D00D0EB7EC55
:100E880012F0000E01010B6F070E03D0000E0B6F5E
:100E9800010E0A6F1CD00AC100F10BC101F101510A
:100EA800000AD8A4F3D70051010AD8B4F8D6030A27
:100EB800D8B4FED6010AD8B417D7070AD8B429D7A8
:100EC800010AD8B442D7030AD8B4C6D7DFD7070E69
:100ED80001010A190B11D8B41200DDD70001A36F64
:100EE8006D0E0001A3659FD0000E246E030E236EC5
:100EF800000E1C6E0A0E1B6E000E166E640E156E2A
:100F0800A3C013F0146AC7EC10F013C019F014C092
:100F18001AF0CDEC0FF0090E1924216E000E1A20DC
:100F2800226ECDEC13F0E00E2124F66E7E0E222008
:100F3800F76E0900F5CF2AF00900F5CF2BF00A006B
:100F4800F5CF2CF0000E1C6E640E1B6EA3C019F0BA
:100F58001A6ACDEC0FF0120E1924216E000E1A2019
:100F6800226E000E246E030E236ECDEC13F0E00EFD
:100F78002124F66E7E0E2220F76E0900F5CF27F0A9
:100F88000900F5CF28F00A00F5CF29F0A8EC0DF0FC
:100F980027C0A0F028C0A1F029C0A2F0000E246E3E
:100FA800030E236E000E166E0A0E156EA3C013F004
:100FB800146AC7EC10F013C021F014C022F0CDEC75
:100FC80013F0E00E2124F66E7E0E2220F76E090043
:100FD800F5CF2AF00900F5CF2BF00A00F5CF2CF059
:100FE800A0C027F0A1C028F0A2C029F0A8EC0DF0FD
:100FF80027C09DF028C09EF029C09FF09DC027F013
:101008009EC028F09FC029F0000E2A6E000E2B6E9D
:101018003F0E2C6EA8EC0DF027C036F028C037F034
:1010280029C038F012000A0E0001A36563D0000E33
:10103800246E030E236E000E166E0A0E156EA3C0E4
:1010480013F0146AC7EC10F013C021F014C022F09A
:10105800CDEC13F0E00E2124F66E7E0E2220F76E02
:101068000900F5CF2AF00900F5CF2BF00A00F5CFDB
:101078002CF0000E1C6E0A0E1B6EA3C019F01A6A23
:10108800CDEC0FF0090E1924216E000E1A20226EE5
:10109800000E246E030E236ECDEC13F0E00E212417
:1010A800F66E7E0E2220F76E0900F5CF27F00900B4
:1010B800F5CF28F00A00F5CF29F0A8EC0DF027C0ED
:1010C800A0F028C0A1F029C0A2F0A0C027F0A1C0BC
:1010D80028F0A2C029F0000E2A6E000E2B6E3F0EDB
:1010E8002C6EA8EC0DF027C036F028C037F029C0C8
:1010F80038F012000001A351030DE00EF324F66E40
:101108007E0EF420F76E0900F5CF27F00900F5CF21
:1011180028F00A00F5CF29F0000E2A6E000E2B6E7B
:101128003F0E2C6EA8EC0DF027C036F028C037F023
:1011380029C038F0120017EC14F045EC14F0AFECAD
:1011480011F089EC11F028EC14F0F28EF28C000EFC
:1011580001018A6F010E896F000E8C6F000E8B6F74
:101168009BEC09F00101C551C611D8B4F9D7C7C124
:101178008BF1C8C18CF18BC10CF18CC10DF10C1F26
:101188000D1F0C4B0D2BC7510C27C8510D23100EEA
:101198000C5D270E0D59D8A0EED7F70E1C6E010E68
:1011A8001D6E3BEC0FF021EEBFF011EE83F0050E43
:1011B800DBCFE3FFE806FCE221EEB7F011EE7BF0AF
:1011C800070EDBCFE3FFE806FCE221EE8DF011EE1F
:1011D8000EF01C0EDBCFE3FFE806FCE27B0E146E7C
:1011E800010E156EEDEC0EF0830E196E010E1A6EDF
:1011F800830E136E010E146E9AEC12F013501B6ED0
:1012080019EC12F07DD03DEC06F0000E01018A6F5A
:10121800020E896FC7C18BF1C8C18CF171D08BC127
:101228000CF18CC10DF10C1F0D1F0C4B0D2BC75170
:101238000C27C8510D23100E0C5D270E0D59D8B080
:1012480004D0000E8A6F020E5AD0830E196E010E5A
:101258001A6E830E136E010E146E9AEC12F0135070
:101268001B6E19EC12F0000E01018A6F030E47D0B5
:101278002B0E136E010E146EE20E156E010E166E15
:10128800F8EC11F02B0E136E010E146E0E0E156E87
:10129800010E166EF8EC11F02B0E0101006F010E15
:1012A800016F50EC10F02B0E136E010E146E000E31
:1012B800166E000E156E000E186E500E176E4FEC5F
:1012C80013F0000E01018A6F040E896FC7C18BF1FC
:1012D800C8C18CF18BC10CF18CC10DF10C1F0D1F15
:1012E8000C4B0D2BC7510C27C8510D23500E0C5D0C
:1012F800C30E0D59D8A0EED7000E8A6F010E896F64
:1013080089C10CF18AC10DF101010D51000AD8A45F
:10131800F3D70C51010AD8B476D7030AD8B47FD7CB
:10132800010AD8B4A5D7070AD8B4D0D7E5D7000E94
:101338000001AE6F010EAD6F000E0101C66F000E09
:10134800C56F000E0001A86F000EA76F000EAA6FF0
:10135800000EA96F000EA66F000EA56F000EAC6FF1
:10136800000EAB6F000EA46F000EA36FD0D063EC1D
:1013780014F0000E0001AE6F020EAD6FC7C1A7F0EA
:10138800C8C1A8F0C4D0A7C0A1F0A8C0A2F0A11FEE
:10139800A21FA14BA22B0101C7510001A1270101E6
:1013A800C8510001A223A25108E1640EA15DD8B082
:1013B80004D0000EAE6F020E8CD0010E91EC13F02B
:1013C800000E0001AE6F030EAD6FC7C1A9F0C8C112
:1013D800AAF0DA0E9D6F7F0E9E6F840E9F6F7F0EB0
:1013E800A06F5BEC12F093D0A9C0A1F0AAC0A2F044
:1013F8000001A11FA21FA14BA22B0101C75100018F
:10140800A1270101C8510001A223100EA15D270EDA
:10141800A259D8B004D0000EAE6F030E5AD0000EF9
:10142800AE6F040EAD6F010EB9EC13F070D0A5C00D
:10143800A1F0A6C0A2F00001A11FA21FA14BA22BE0
:101448000101C7510001A1270101C8510001A223D0
:10145800100EA15D270EA259D8B004D0000EAE6FB1
:10146800040E37D0000EAE6F060EAD6F010ED5EC30
:1014780011F0C7C1ABF0C8C1ACF049D0ABC0A1F006
:10148800ACC0A2F00001A11FA21FA14BA22B010119
:10149800C7510001A1270101C8510001A223100E64
:1014A800A15D270EA259D8B011D0000EAE6F050E5F
:1014B80010D0000EA5EC13F0000E0101C66F010E4E
:1014C800C56F000E0001AE6F070E03D0000EAE6FA1
:1014D800060EAD6F1CD0ADC0A1F0AEC0A2F0A251F7
:1014E800000AD8A4F3D7A151010AD8B440D7030AF7
:1014F800D8B449D7010AD8B477D7070AD8B497D748
:10150800010AD8B4BBD7030AD8B4D3D7DFD7070E9C
:101518000001AD19AE11D8B41200DDD7A6C0AAF0EB
:101528000001AB6BAC6BA535AA3701E3AB81AA51BF
:10153800AF6FA9C0AAF0AB6BAC6BA835AA3701E3B3
:10154800AB81AA51AE6FAF51D8B40BD0AE51AF5DDD
:10155800D8B00ED0AF510008AE25AA6F180EAA65F4
:1015680007D0A7C0A4F0A8C0A5F0A9C0A6F0120093
:10157800AE51D8B40BD0AF51AE5DD8B00ED0AE518D
:101588000008AF25AA6F180EAA6507D0A4C0A4F05A
:10159800A5C0A5F0A6C0A6F01200060EAD6FA6BFA6
:1015A800AD8FA9BFAD8DA58FFF0EA417FF0EA51790
:1015B800000EA617A88FFF0EA717FF0EA817000E7C
:1015C800A917AE51AF5DD8B01BD0D890A737A837B0
:1015D800A937AE07AF51AE19D8B40DD0AD07ADC01D
:1015E800AAF0070EAA17D8B406D0EFD7D890A6331A
:1015F800A533A433AF2BAE51AF19D8B41FD0F6D74B
:10160800AF51AE5DD8B01AD0D890A437A537A63759
:10161800AF07AF51AE19D8B40DD0AD07ADC0AAF021
:10162800070EAA17D8B406D0EFD7D890A933A83395
:10163800A733AE2BAE51AF19D8A4F7D7ADAF0CD0A6
:10164800FF0EA41BFF0EA51BFF0EA61B010EA42751
:10165800000EA523000EA623ADAD0CD0FF0EA71BD0
:10166800FF0EA81BFF0EA91B010EA727000EA8231B
:10167800000EA923000EAD6FA451A727A551A823DA
:10168800A651A923A9AF0ED0FF0EA71BFF0EA81BBA
:10169800FF0EA91B010EA727000EA823000EA923E1
:1016A800010EAD6FA7C013F0A8C014F0A9C015F0C3
:1016B800AFC016F0ADC017F096EC0EF013C0A4F052
:1016C80014C0A5F015C0A6F0120015C019F01A6ACA
:1016D8001B6A1434193601E31A801950216E2150FF
:1016E800D8A409D0000E136E000E146E000E156EED
:1016F800000E166E120018C019F01A6A1B6A173409
:10170800193601E31A801950206E2050D8A409D048
:10171800000E136E000E146E000E156E000E166E7F
:101728001200148EFF0E1316FF0E1416000E151657
:10173800178EFF0E1616FF0E1716000E1816000E3F
:101748001C6E000E1D6E000E1E6E000E1F6E7F0EAC
:10175800215E2050980F215E180E206ED8901C36FE
:101768001D361E361F361650135C17501458185065
:101778001558D8A007D01650135E1750145A185091
:10178800155A1C80D890133614361536202EE6D7F5
:1017980021AE16D02150800A970FD8B009D0000E7C
:1017A800136E000E146E000E156E000E166E1200EB
:1017B800D8901F321E321D321C32213EF9D715D067
:1017C800170E21640FD0000E136E000E146E000E5B
:1017D800156E000E166E1200D8901C361D361E3679
:1017E8001F3621062150D8A4F7D71CC013F01DC0FE
:1017F80014F01EC015F01FC016F0120020EE80F085
:1018080010EE2FF0050EDBCFE3FFE806FCE20D0E2D
:10181800F66E7F0EF76E20EE23F0050E0900F5CF69
:10182800DEFFE806FBE220EEDAF010EE17F00B0E12
:10183800DBCFE3FFE806FCE2070EF66E7F0EF76EDD
:1018480020EE29F0050E0900F5CFDEFFE806FBE2E1
:10185800010E376E64D0F0EC12F0356E000E386E63
:10186800050E386401D05BD03850020D170EF324F2
:10187800D96E000EF420DA6EDECF14F0DDCF15F04D
:101888003850010D2F0EF324D96E000EF420DA6EB5
:10189800DF50166E1650010DF3501426F450152221
:1018A80014C0F6FF15C0F7FF0800F5503518D8A486
:1018B8002AD03850010D2F0EF324D96E000EF420D3
:1018C800DA6EDF2A3850010D230EF324D96E000E8C
:1018D800F420DA6E3850010D2F0EF324E16E000E5D
:1018E800F420E26EDE50E618D8A417D03850010D67
:1018F800290EF324D96E000EF420DA6EDF50366E0E
:10190800000E376E0AD03850010D2F0EF324D96E11
:10191800000EF420DA6E000EDF6E382AA1D7375099
:10192800D8A499D736501200153416341E6E1E509E
:10193800D8A409D0000E136E000E146E000E156E9A
:10194800000E166E1200183419341D6E1D50D8A4DE
:1019580009D0000E136E000E146E000E156E000EE8
:10196800166E1200158EFF0E1316FF0E1416FF0EBC
:101978001516000E1616188EFF0E1616FF0E1716E1
:10198800FF0E1816000E1916000E196E000E1A6EAC
:10199800000E1B6E000E1C6E7F0E1E5E1D50A00FEB
:1019A8001E5E200E1D6ED89019361A361B361C3650
:1019B8001650135C175014581850155819501658CB
:1019C800D8A009D01650135E1750145A1850155A3B
:1019D8001950165A1980D8901336143615361636FB
:1019E8001D2EE1D71EAE16D01E50800A9F0FD8B00C
:1019F80009D0000E136E000E146E000E156E000E48
:101A0800166E1200D8901C321B321A3219321E3E42
:101A1800F9D715D01F0E1E640FD0000E136E000EDE
:101A2800146E000E156E000E166E1200D890193640
:101A38001A361B361C361E061E50D8A4F7D719C0F6
:101A480013F01AC014F01BC015F01CC016F01200D9
:101A5800A3C0A5F00001A66BA76BA235A53701E3CB
:101A6800A681A551AF6FAF51D8A409D0000EA16FC0
:101A7800000EA26F000EA36F000EA46F1200170EC7
:101A8800A56FA1C0A6F0A2C0A7F0A3C0A8F0A52981
:101A9800A96F04D0D890A833A733A633A92FFAD7B3
:101AA8000001A651AA6FA28FFF0EA117FF0EA21761
:101AB800000EA317A151AB6FA251AC6FA351AD6F2C
:101AC800AE6B8E0EAF5FAFAF16D0AF51800A8F0FDF
:101AD800D8B009D0000EA16F000EA26F000EA36F40
:101AE800000EA46F1200D890AE33AD33AC33AB33D5
:101AF800AF3FF9D715D0170EAF650FD0000EA16F05
:101B0800000EA26F000EA36F000EA46F1200D890F3
:101B1800AB37AC37AD37AE37AF07AF51D8A4F7D72F
:101B2800AA51D8B408D0AE1FAD1FAC1FAB6D000EC4
:101B3800AC23AD23AE23ABC0A1F0ACC0A2F0ADC0C6
:101B4800A3F0AEC0A4F0120029C02DF02E6A2F6AAF
:101B580028342D3601E32E802D50306E3050D8A415
:101B680007D0000E276E000E286E000E296E120098
:101B78002CC02DF02E6A2F6A2B342D3601E32E80CF
:101B88002D50356E3550D8A407D0000E276E000EA4
:101B9800286E000E296E120035507B0F302629C0A2
:101BA80035F02C50351A800E3516288E2B8EFF0EE8
:101BB8002A16FF0E2B16000E2C16000E316E000E84
:101BC800326E000E336E070E346E27A006D02A50F0
:101BD80031262B5032222C503322D89029322832E9
:101BE8002732D8902A362B362C36342EEED7090ECB
:101BF800346E27A006D02A5031262B5032222C5082
:101C08003322D890293228322732D89033323232D0
:101C18003132342EEED731C013F032C014F033C055
:101C280015F030C016F035C017F096EC0EF013C062
:101C380027F014C028F015C029F012009FC036F014
:101C4800376A386A00019E35363601E337803650E8
:101C5800A76FA751D8A407D0000E9D6F000E9E6FE6
:101C6800000E9F6F1200A2C036F0376A386AA1359D
:101C7800363601E337803650A86FA851D8A407D06C
:101C8800000E9D6F000E9E6F000E9F6F1200000EDB
:101C9800A46F000EA56F000EA66FA851890FA75F4D
:101CA8009FC0A8F0A251A81B800EA8179E8FFF0EF8
:101CB8009D17FF0E9E17000E9F17A18FFF0EA017EE
:101CC800FF0EA117000EA217180EA36FD890A43705
:101CD800A537A637A0519D5DA1519E59A2519F5984
:101CE800D8A007D0A0519D5FA1519E5BA2519F5BD8
:101CF800A481D8909D379E379F37A32FE7D7A4C0DC
:101D080013F0A5C014F0A6C015F0A7C016F0A8C01F
:101D180017F096EC0EF013C09DF014C09EF015C09D
:101D28009FF012001650D8B405D013501410151097
:101D3800D8A40CD0000E136E000E146E000E156E93
:101D48001200162AD890153214321332000E1314CA
:101D5800186E000E1414196EFE0E15141A6E185013
:101D680019101A10D8B40CD0ECD7162A010E132665
:101D7800000E1422000E1522D89015321432133298
:101D8800000E1314186E000E1414196EFF0E15149D
:101D98001A6E185019101A10D8B406D0E6D71606BD
:101DA800D89013361436153614BE03D0020E1660BA
:101DB800F6D716A0149ED890163216501512175042
:101DC800D8A4158E13C013F014C014F015C015F064
:101DD8001200000E1B6E000E1A6E000E196EF0EC4B
:101DE80012F0186E194A1A2A1B50010D14C016F069
:101DF80015C017F0F3501626F450172216C0F6FF38
:101E080017C0F7FFF86A050EF76403D00800F5500D
:101E180005D0F6CFE9FFF7CFEAFFEF501818D8A49E
:101E280002D01B2A02D0000E1B6E1B50010D14C0DD
:101E380016F015C017F0F3501626F450172216C0E6
:101E4800F6FF17C0F7FFF86A050EF76403D008001D
:101E5800F55005D0F6CFE9FFF7CFEAFFEF500009BC
:101E6800D8A4BDD719C014F01AC015F01200580E26
:101E7800146E7F0E156E60EC11F0F0EC12F01F6E10
:101E88002F0E1F64FAD73A0E1F60F7D7000E1E6E8A
:101E9800030E1E6401D02ED01E50010DF3501C24D9
:101EA800D96EF4501D20DA6E000EDF6E1E50010D43
:101EB800F3501C24D96EF4501D20DA6E1E50010D0B
:101EC800F3501C24E16EF4501D20E26EE7500A0D19
:101ED800F3501F24D00FDF6EF0EC12F01F6E2F0EA0
:101EE8001F6403D0390E1F64E1D7F0EC12F01F6EA7
:101EF8001E2ACED7F50E146E7F0E156EEDEC0EF081
:101F0800120015AE16D013C019F014C01AF015C07F
:101F18001BF0191E1A1E1B1E192A000E1A221B223C
:101F2800000E1924136E000E1A20146E800E1B204A
:101F3800156E18AE16D016C019F017C01AF018C0D2
:101F48001BF0191E1A1E1B1E192A000E1A221B220C
:101F5800000E1924166E000E1A20176E800E1B2014
:101F6800186E000E131A000E141A800E151A000EA1
:101F7800161A000E171A800E181A1650135C1750EE
:101F8800145818501558D8B002D0D8901200D880DC
:101F98001200000E1E6E1CAE06D01B6C1C1ED8B0A4
:101FA8001C2A010E1E6E1AAE06D0196C1A1ED8B065
:101FB8001A2A010E1E1A000E206E000E1F6E1B50EC
:101FC8001C10D8B41CD0010E1D6E04D0D8901B363E
:101FD8001C361D2A1CAEFAD7D8901F3620361B5047
:101FE800195C1C501A58D8A005D01B50195E1C50FB
:101FF8001A5A1F80D8901C321B321D2EEDD71E5046
:10200800D8B404D01F6C201ED8B0202A1FC019F0E5
:1020180020C01AF01200000E1B6E000E1C6E000E7F
:102028001D6E000E1E6E1750181019101A10D8B415
:102038002AD0010E1F6E06D0D890173618361936DA
:102048001A361F2A1AAEF8D7D8901B361C361D36FA
:102058001E361750135C18501458195015581A503A
:102068001658D8A009D01750135E1850145A195092
:10207800155A1A50165A1B80D8901A32193218322B
:1020880017321F2EE1D71BC013F01CC014F01DC05F
:1020980015F01EC016F0120020EE86F011EE02F0C8
:1020A800050EDBCFE3FFE806FCE2020E0001B66F87
:1020B800010EB76FFB0EB86F7F0EB96F00C113F03A
:1020C80001C114F09AEC12F013C0BAF014C0BBF0BE
:1020D8008BEC00F0310E146E7F0E156E60EC11F073
:1020E800020E146E010E156E60EC11F0CD0E146E1A
:1020F8007F0E156E60EC11F0F0EC12F03E0AD8A4D9
:10210800FBD700C114F001C115F060EC11F002EC2E
:102118000CF01200A80EF66E250EF76E000EF86E83
:1021280001EE8DF010EE38F00900F5CFEEFFE55026
:10213800E150FAE1C00EF66E270EF76E000EF86E4B
:1021480000EEDAF010EE25F00900F5CFEEFFE550CD
:10215800E150FAE101EEC5F0360EEE6AE806FDE15F
:1021680000EE60F03D0EEE6AE806FDE100EE3AF0A2
:10217800130EEE6AE806FDE14D904D92000EF86EE2
:1021880000019FEF08F0000E186E14AE06D0136C15
:10219800141ED8B0142A010E186E16AE04D0156C91
:1021A800161ED8B0162A15501610D8B418D0010E1D
:1021B800176E04D0D89015361636172A16AEFAD7E9
:1021C8001550135C16501458D8A004D01550135E3F
:1021D8001650145AD89016321532172EF1D71850B7
:1021E800D8B404D0136C141ED8B0142A13C013F03A
:1021F80014C014F012002450251026102710D8B44B
:1022080024D0010E286E06D0D890243625362636DE
:102218002736282A27AEF8D72450205C2550215885
:102228002650225827502358D8A008D02450205E82
:102238002550215A2650225A2750235AD8902732FF
:10224800263225322432282EE7D720C020F021C09C
:1022580021F022C022F023C023F012008E0E236E3C
:1022680006D0D8901E321D321C321B32232A000E93
:102278001B141F6E000E1C14206E000E1D14216E00
:10228800FF0E1E14226E1F50201021102210D8A4F9
:10229800E8D71BC013F01CC014F01DC015F023C0F4
:1022A80016F0000E176E96EC0EF013C01BF014C05B
:1022B8001CF015C01DF0120014D014C0F6FF15C094
:1022C800F7FFF86A050EF76403D00800F55005D04B
:1022D800F6CFE9FFF7CFEAFFEF50B7EC12F0144A58
:1022E800152A14C0F6FF15C0F7FFF86A050EF76443
:1022F80003D00800F55005D0F6CFE9FFF7CFEAFF85
:10230800EF500009D8B41200D8D7A39ACA0E136E9A
:10231800260E146E8BEC14F0A398420E136E260E44
:10232800146E86EC14F0080E706E900E716E240E0A
:10233800726E820E756E060E766E000E4C6E000E74
:102348004B6E080E4A6E000E496E000E486E000E67
:10235800476EA38A12009D9AF60E136E260E146E0F
:1023680095EC14F09D98700E136E260E146E90EC7A
:1023780014F0080EB86E900EAB6E240EAC6E8A0E7A
:10238800AF6E000EB06E000E456E000E446E080E65
:10239800436E000E426E000E416E000E406E9D8A26
:1023A8001200396E3F0E146E7F0E156E60EC11F040
:1023B8003950300FB7EC12F02C0EB7EC12F0380E83
:1023C800B7EC12F0300EB7EC12F0380EB7EC12F092
:1023D800300EB7EC12F0CD0E146E7F0E156E60EC59
:1023E80011F002EC0CF0120013C017F014C018F032
:1023F80002D0174A182A17C0D9FF18C0DAFFDF50D1
:10240800D8B405D0F6D7174A182A154A162A15C07F
:10241800D9FF16C0DAFF17C0E1FF18C0E2FFDFCF0F
:10242800E7FFE750D8B41200EED7000E206E000E7A
:102438001F6E0BD01F501924D96E20501A20DA6E47
:10244800DF50B7EC12F01F4A202A1B501C6E1D6A81
:102458001C501F5C2050800A1E6E1D50800A1E589A
:10246800D8A0E8D70A0EB7EC12F012000001B35159
:10247800B411B511D8B406D0000EB31B000EB41BAE
:10248800800EB51BB0C0A4F0B1C0A5F0B2C0A6F0D4
:10249800B3C0A7F0B4C0A8F0B5C0A9F092EC0AF098
:1024A800A4C0B0F0A5C0B1F0A6C0B2F01200630E8F
:1024B800146E7F0E156E60EC11F09DC014F09EC076
:1024C80015F060EC11F0E20E146E7F0E156E60ECE4
:1024D80011F09FC014F0A0C015F060EC11F0DE0EF2
:1024E800146E7F0E156E60EC11F002EC0CF0120009
:1024F800000E206E000E1F6E0BD01F501924D96ECF
:1025080020501A20DA6EDF50B7EC12F01F4A202A4A
:102518001B501C6E1D6A1C501F5C2050800A1E6ECA
:102528001D50800A1E58D8B01200E7D713C017F004
:1025380014C018F002D0174A182A17C0D9FF18C0BB
:10254800DAFFDF50D8A4F7D713C015F014C016F07F
:10255800151E161E154A162A17501524136E1850E4
:102568001620146E1200136E4350D8B4FDD79DB8D0
:1025780003D013C0ADFF12D09D984550010D680ED1
:10258800F324D96E000EF420DA6E13C0DFFF452A5B
:10259800070E456402D0000E456E43069D88120062
:1025A8006C61743A32322E3632363835322C6C6ED3
:1025B800673A3132302E32363637333400646F742E
:1025C800436F756E74203D203700434F4E4E454390
:1025D800540068656C6C6F00000E136E4050D8B4E0
:1025E800FDD74150010D600EF324D96E000EF42082
:1025F800DA6EDF50136E412A070E416402D0000ED6
:10260800416E9D9A40069D8A13501200200E896ED5
:10261800380E8A6E080E8B6EDF0E926EBF0E936EAA
:10262800B70E946E340E0F013A6F3F0E396F0F0ECE
:10263800386F000E616EF18E1200080E4A6012D0DB
:102648004B50010D780EF324D96E000EF420DA6E8B
:10265800DF50736E4B2A070E4B6402D0000E4B6E90
:102668004A2A1200A3981200080E436012D0445060
:10267800010D680EF324D96E000EF420DA6EDF50D7
:10268800AD6E442A070E446402D0000E446E432AFD
:1026980012009D98120013C019F014C01AF008D047
:1026A80019C0D9FF1AC0DAFF15C0DFFF194A1A2A64
:1026B8001706D8A018061728F3E11828D8B412006E
:1026C800EFD771A202D0719871884950010D700E30
:1026D800F324D96E000EF420DA6E74CFDFFF492A96
:1026E800070E496402D0000E496E472A1200ABA2B9
:1026F80002D0AB98AB884250010D600EF324D96E1E
:10270800000EF420DA6EAECFDFFF422A070E4264D5
:1027180002D0000E426E402A1200396E6E0E146E00
:102728007F0E156E60EC11F03950300FB7EC12F0D7
:10273800CD0E146E7F0E156E60EC11F002EC0CF0ED
:102748001200396E8E0E146E7F0E156E60EC11F04D
:102758003950300FB7EC12F0CD0E146E7F0E156E97
:1027680060EC11F002EC0CF01200396E790E146E68
:102778007F0E156E60EC11F03950300FB7EC12F087
:10278800CD0E146E7F0E156E60EC11F002EC0CF09D
:10279800120021502302F3CF25F0F4CF26F0215068
:1027A8002402F350262622502302F350262625C061
:1027B80021F026C022F01200F57FC57FD57F987FD3
:1027C800AB7FB27F646F7472657365740044617423
:0D27D800616275662000474572726F7200E5
:1027E6001BC013F01CC014F0156A8E0E166E000E78
:1027F600176E96EC0EF013C01BF014C01CF015C03B
:102806001DF01200135014101510D8B406D0000E87
:10281600131A000E141A800E151A13C013F014C0E2
:1028260014F015C015F012009CEC14F00AEC13F02D
:102836005AEC14F045EC14F06CEC14F028EC14F09F
:10284600AFEC11F089EC11F01200000ED76EB00E4D
:10285600D66EB00E466EF294F28A000E136E000E1D
:10286600146E81EC14F0D10ED56E1200146E14C0E5
:1028760013F013461346C2501318830B1318C26E77
:10288600C2801200010EC26E000EC16E8E0EC06EA8
:10289600000EC36E000EC46E1200C450166E156A8A
:1028A600C3501524136E000E1620146E1200700EFF
:1028B600D36E040ED26E400E9B6ED2BE1200FDD7B2
:1028C600D00E146E7F0E156E60EC11F002EC0CF05B
:1028D6001200000E0F01546F000E556F000E566F5A
:1028E6001200F29446C0D6FF0101C74BC82B120056
:1028F600C2B202D0010E1200000E120013C03AF04E
:1029060014C03BF0120013C03EF014C03FF012009A
:1029160013C03CF014C03DF0120013C098F014C070
:1029260099F0120013C096F014C097F01200C282FC
:062936001200D09E120009
:107E900000010000000A00000064000000E8030088
:107EA0000010270000A086010040420F0080969835
:107EB0000000E1F50500CA9A3B00803F0020410028
:107EC000C842007A44401C4650C34724744997185E
:107ED0004BBCBE4C6B6E4E03155079AD60F34971CF
:107EE00000803FCDCC3DD7233C12833AB7D138C672
:107EF0002737388635C0D633CC2B32708930E7DB54
:107F00002EE53C1E42A20D010203040506020504F3
:107F100009060661766572616765706D32353A25CE
:107F2000662C0041542B43495053544152543D2236
:107F30000041542B43495053454E443D302C0041A1
:107F4000542B4349505345525645523D0041542B02
:107F500043575141500D0A0041542B434946535257
:107F60000D0A0041542B43574A41503D22004154D1
:107F70002B43574D4F44453D0041542B4349504DF1
:107F800055583D006131323334353637380041546D
:107F90002B534C4545503D006E6F206368616E6702
:107FA000650041542B5253540D0A004C696E6B65A9
:107FB0006400556E6C696E6B004750524D43002B48
:107FC0004950442C007265616479000D0A0D0A0065
:107FD00041540D0A004641494C0079796200220D56
:107FE0000A00222C220041544500544350005544BD
:0F7FF0005000222C004F4B00415400257500001B
:020000040020DA
:08000000FFFFFFFFFFFFFFFF00
:020000040030CA
:0E000000FF281F3CFFBF85FF0FC00FE00F4021
:00000001FF
